:060000000A128A11FC2F18
:100CD400831603138710FF3092000C308312031322
:100CE4009D009B019D121D12043092009101080089
:100CF4000030FC000030FB000030FA000030F90046
:100D0400701C852E862E9D2E7408F9077508031114
:100D14000318013E03198F2EFA07760803110318EE
:100D2400013E0319962EFB07770803110318013EB1
:100D340003199D2EFC070130F8000310F40DF50D86
:100D4400F60DF70DF80B9F2E01300310F30CF20C87
:100D5400F10CF00CFF3E031DA72E730872047104FE
:100D64007004031DB62EB72E822E7C08F3007B0878
:100D7400F2007A08F1007908F00008000A128A11DA
:100D84006A260A128A117F3083160313860083129F
:100D940003138618CE2ECF2EDD2E0618D22ED32E78
:100DA400DD2E1930AD000030AE000A128A118527FD
:100DB4000A128A11C92E8618E02EE12EEF2E061C87
:100DC400E42EE52EEF2E3230AD000030AE000A12D4
:100DD4008A1185270A128A11C92E861CF22EF32E37
:100DE400012F0618F62EF72E012F4B30AD000030E0
:100DF400AE000A128A1185270A128A11C92E861C8E
:100E0400042F052F132F061C082F092F132F6430CE
:100E1400AD000030AE000A128A1185270A128A1129
:100E2400C92E0030AD00AE000A128A1185270A12BD
:100E34008A11C92E0A128A11002800308312031362
:100E4400AB000030AA000030A9000030A80023083D
:100E54002204210420040319302F312F7C2F013068
:100E6400AC003F2F0130FD000310A00DA10DA20D19
:100E7400A30DFD0B362F0130AC07A31F422F432FC8
:100E8400342F0130FD000310A80DA90DAA0DAB0DE0
:100E9400FD0B452F23082702031D5A2F2208260283
:100EA400031D5A2F21082502031D5A2F200824024E
:100EB400031C5D2F5E2F6D2F2008A4022108031C44
:100EC400210FA5022208031C220FA6022308031CDB
:100ED400230FA702281401300310A30CA20CA10CA9
:100EE400A00CFF3E031D6E2F0130AC02031D7B2FAF
:100EF4007C2F432F2B08A3002A08A2002908A10055
:100F04002808A0000800831203132E08803AFF006B
:100F140080307F02031D902F65302D02031C932F18
:100F2400942F9A2F643083120313AD000030AE0067
:100F340083120313AE1F9F2FA02FA22FAD01AE016A
:100F44000030A3000030A2000030A1006430A000F3
:100F54002D08F0002E08F1000030F11BFF30F200E4
:100F6400F3000030F7000030F6000330F500FF30E6
:100F7400F4000A128A117A260A128A11730883125B
:100F84000313A7007208A6007108A5007008A40046
:100F94000A128A111F270A128A11831203132108C5
:100FA400B3002008B2003308B0003208AF000310C9
:100FB400B00CAF0C0310B00CAF0C2F089B0033081F
:100FC400B0003208AF000310B00CAF0C2F08013989
:100FD400B100B10EB10D1D083106DF3931069D0097
:100FE40032080139AF00AF0E1D082F06EF392F0666
:0C0FF4009D00080083010A128A11C02E23
:00000001FF
